:020000040800F2
:10000000A80600202D020008771000086F100008D5
:1000100073100008E70200088D12000800000000BD
:100020000000000000000000000000005111000866
:10003000EB02000800000000B11000085311000896
:10004000470200084702000847020008470200086C
:10005000470200084702000847020008470200085C
:10006000470200084702000847020008470200084C
:10007000470200084702000847020008470200083C
:10008000470200084702000847020008470200082C
:10009000470200084702000847020008470200081C
:1000A000470200084702000847020008470200080C
:1000B000470200080000000000000000470200089E
:1000C00047020008470200084702000847020008EC
:1000D00047020008470200084702000847020008DC
:1000E000470200084702000800000000000000006E
:1000F0000000000000000000000000000000000000
:10010000000000004702000800000000470200084D
:10011000000000000000000009120008470200086B
:10012000470200084702000847020008470200088B
:10013000470200080000000000000000000000006E
:1001400047020008470200084702000800000000BC
:10015000470200084702000847020008470200085B
:10016000470200084702000847020008000000009C
:1001700047020008470200080000000000000000DD
:1001800047020008470200084702000800F002F892
:1001900000F03CF80AA090E8000C82448344AAF1E5
:1001A0000107DA4501D100F031F8AFF2090EBAE8E3
:1001B0000F0013F0010F18BFFB1A43F0010318479B
:1001C0003011000050110000103A24BF78C878C1E7
:1001D000FAD8520724BF30C830C144BF04680C604D
:1001E000704700000023002400250026103A28BF95
:1001F00078C1FBD8520728BF30C148BF0B60704799
:100200001FB501F04BF81FBD10B510BD00F031F85F
:100210001146FFF7F5FF01F03BF800F04FF803B48B
:10022000FFF7F2FF03BC00F057F8000009488047D1
:1002300009480047FEE7FEE7FEE7FEE7FEE7FEE7C8
:10024000FEE7FEE7FEE7FEE704480549054A064BE0
:1002500070470000B91100088D010008A8000020B7
:10026000A8060020A8020020A802002070477047BE
:100270007047754600F02CF8AE46050069465346B7
:1002800020F00700854618B020B5FFF7DDFFBDE878
:1002900020404FF000064FF000074FF000084FF0ED
:1002A000000B21F00701AC46ACE8C009ACE8C0097E
:1002B000ACE8C009ACE8C0098D46704710B50446EB
:1002C000AFF300802046BDE81040FFF7A8BF000054
:1002D000004870474800002001491820ABBEFEE7E7
:1002E00026000200704700BFFEE770470148006823
:1002F000704700000400002002480068401C0149CB
:10030000086070470400002010B50024032000F0AE
:10031000A5F80F2000F008F808B1012401E000F072
:100320004DF8204610BD0000F0B587B00546002608
:10033000002700222946362000F04EF8362000F033
:100340003EF800BF1948806D40F0100017498865DD
:100350000846806D00F01000009000BF00BF01A9AA
:1003600002A800F053F9059E1EB900F077F9044683
:1003700002E000F073F944000D48B4FBF0F0471EB2
:100380000C480D49086040F2E7310B48C1604760F6
:10039000002101618160816100F047FD20B90648BC
:1003A00000F05EFD07B0F0BD0120FBE70010024049
:1003B00040420F000010004008000020704700BFBE
:1003C00000F01F02012191404209920002F1E02257
:1003D000C2F8001100BF70472DE9F05F80460D465E
:1003E0001646002700F048FE074639462A4633469F
:1003F00001F00700C0F1070ABAF1040F02D94FF06B
:10040000040A01E0C0F1070AD14600F1040ABAF17A
:10041000070F02D24FF0000A01E0A0F1030AD44610
:100420004FF0010A0AFA09FAAAF1010A0AEA020AD5
:100430000AFA0CFA4FF0010B0BFA0CFBABF1010BB3
:100440000BEA030B4AEA0B042146404600F01CFE6F
:1004500000F000B830BCBDE8C09F000000BF00F055
:100460000702064B19684FF6FF031940044B0B4374
:1004700043EA0221014B196000BF70470CED00E018
:100480000000FA050248006800F4C06070470000F0
:10049000007000402DE9F04104460D4614B90120DA
:1004A000BDE8F0815548006800F00700A8420ED270
:1004B0005248006820F00700284350490860084669
:1004C000006800F00700A84201D00120E8E720788A
:1004D00000F00100002840D06068032806D1484899
:1004E000006800F00070D8B90120D9E760680228E0
:1004F00006D14348006800F4003088B90120CFE7F6
:10050000606830B93E48006800F0020040B9012040
:10051000C6E73B48006800F4806008B90120BFE7E7
:100520003748806820F003006168084334498860D8
:10053000FFF7DCFE064608E0FFF7D8FE801B41F21D
:100540008831884201D90320AAE72D48806800F04D
:100550000C006168B0EB810FEED1207800F0020052
:10056000022807D12648806820F0F000A1680843DF
:10057000234988602148006800F00700A8420ED98E
:100580001E48006820F0070028431C490860084600
:10059000006800F00700A84201D0012080E7207821
:1005A00000F00400042807D11548806820F4E060BA
:1005B000E168084312498860207800F008000828A4
:1005C00008D10F48806820F46050216940EAC100DA
:1005D0000B49886000F054F809498968C1F3031198
:1005E000084A515C01F01F01C840074908600F200C
:1005F000FFF79AFE0746384652E700000020024007
:1006000000100240A8120008000000200F22026023
:100610000D4A926802F0030242600B4A926802F0AF
:10062000F0028260084A926802F4E062C260064A00
:10063000926802F46052D2080261044A126802F021
:1006400007020A60704700000010024000200240CC
:1006500001480068704700000000002000B5FFF767
:10066000F7FF05498968C1F30221044A515C01F092
:100670001F01C84000BD000000100240B812000871
:100680002DE9F04100240020DFF800C1DCF808C0AB
:100690000CF00C01DFF8F4C0DCF80CC00CF0030720
:1006A00019B10C291ED1012F1CD1DFF8E0C0DCF8F4
:1006B00000C00CF0080CBCF1000F06D1DFF8CCC074
:1006C000DCF894C0CCF3032405E0DFF8C0C0DCF80C
:1006D00000C0CCF30314DFF8B8C05CF8244041B983
:1006E000204606E0042901D12A4802E0082900D169
:1006F00029480C2947D1DFF894C0DCF80CC00CF075
:100700000305DFF888C0DCF80CC0CCF3021C0CF148
:100710000103012D1FD0022D02D0032D1AD10CE0B0
:10072000DFF870C0BCFBF3FCDFF86080D8F80C8009
:10073000C8F306280CFB08F218E0DFF85CC0BCFB2D
:10074000F3FCDFF84880D8F80C80C8F306280CFBCF
:1007500008F20BE000BFB4FBF3FCDFF83080D8F800
:100760000C80C8F306280CFB08F200BF00BFDFF8BE
:100770001CC0DCF80CC0CCF3416C0CF1010C4FEA4E
:100780004C06B2FBF6F0BDE8F0810000001002401C
:10079000C01200080024F40000127A002DE9F8438A
:1007A000044614B90120BDE8F883F848806800F0D9
:1007B0000C06F648C06800F00307207800F010002F
:1007C000102875D11EB10C2E74D1012F72D1EF48B3
:1007D000006800F0020018B1A06908B90120E2E742
:1007E000EA48216A006800F0080020B1E748006884
:1007F00000F0F00005E0E5489430006800F4706017
:10080000000981421FD9206A00F054FC08B1012080
:10081000C9E700BFDD48006840F00800DB49086018
:100820000846006820F0F000216A0843D7490860B4
:1008300000BF0846406820F47F40E16940EA01209B
:10084000D24948601EE000BFD048006840F0080070
:10085000CE4908600846006820F0F000216A08438D
:10086000CA49086000BF0846406820F47F40E1693B
:1008700040EA0120C5494860206A00F01BFC08B12D
:10088000012090E7FFF7FCFEC0498968C1F303111E
:10089000BF4A515C01F01F01C840BE4908600F20EB
:1008A000FFF742FD8046B8F1000F4ED040467AE790
:1008B0004BE0FFE7A06980B3B448006840F0010056
:1008C000B2490860FFF712FD054606E0FFF70EFD8E
:1008D000401B022801D9032065E7AC48006800F0FE
:1008E00002000028F2D000BFA848006840F00800CD
:1008F000A64908600846006820F0F000216A084315
:10090000A249086000BF0846406820F47F40E169C2
:1009100040EA01209D49486017E0FFE79B480068D6
:1009200020F0010099490860FFF7E0FC054606E069
:10093000FFF7DCFC401B022801D9032033E7934872
:10094000006800F002000028F2D1207800F00100D9
:1009500000285CD0082E03D00C2E0AD1032F08D11A
:100960008A48006800F4003088B3606878BB0120D2
:1009700019E700BF6068B0F5803F06D18348006882
:1009800040F48030814908601AE06068B0F5A02F1B
:100990000BD17E48006840F480207C4908600846FE
:1009A000006840F4803008600AE07848006820F46D
:1009B0008030764908600846006820F4802008608E
:1009C00000BF606890B1FFF791FC054607E01EE0AC
:1009D000FFF78CFC401B642801D90320E3E66B4839
:1009E000006800F400300028F2D010E0FFF77EFC31
:1009F000054606E0FFF77AFC401B642801D9032076
:100A0000D1E66248006800F400300028F2D1207876
:100A100000F00200022852D1042E03D00C2E14D173
:100A2000022F12D15948006800F4806018B1E068C4
:100A300008B90120B7E65548406820F0F850217CFD
:100A400040EA01605149486039E0E06800B34F482E
:100A5000006840F480704D490860FFF747FC054688
:100A600006E0FFF743FC401B022801D903209AE669
:100A70004648006800F480600028F2D0434840688F
:100A800020F0F850217C40EA01604049486016E0BF
:100A90003E48006820F480703C490860FFF726FC5F
:100AA000054606E0FFF722FC401B022801D903207F
:100AB00079E63648006800F480600028F2D120789A
:100AC00000F00800082836D16069D0B12F48943072
:100AD000006840F001002D49C1F89400FFF706FCC2
:100AE000054606E0FFF702FC401B022801D903205F
:100AF00059E626489430006800F002000028F1D042
:100B000019E022489430006820F001001F49C1F824
:100B10009400FFF7EBFB054606E0FFF7E7FB401B01
:100B2000022801D903203EE618489430006800F0FE
:100B300002000028F1D1207800F00400042870D1D0
:100B40004FF000091148806D00F0805078B900BF67
:100B50000E48806D40F080500C4988650846806DD5
:100B600000F08050009000BF00BF4FF001090A481C
:100B7000006800F48070F0B90748006840F48070A5
:100B800005490860FFF7B2FB05460EE00010024081
:100B9000A81200080000002000700040FFF7A6FB2C
:100BA000401B022801D90320FDE59B48006800F4A2
:100BB00080700028F2D000BFA068012808D19748B3
:100BC000006840F0010095499039C1F8900021E09B
:100BD000A06805280FD19148006840F004008F49B3
:100BE0009039C1F890000846D0F8900040F001001C
:100BF000C1F890000EE08948006820F001008749A4
:100C00009039C1F890000846D0F8900020F0040018
:100C1000C1F8900000BFA068A0B1FFF767FB0546D0
:100C200009E02EE0FFF762FB401B41F28831884269
:100C300001D90320B7E57948006800F002000028D8
:100C4000F0D012E0FFF752FB054608E0FFF74EFB3D
:100C5000401B41F28831884201D90320A3E56F4847
:100C6000006800F002000028F0D1B9F1010F07D1AF
:100C70006A489038806D20F08050684990398865C6
:100C800000BF207800F02000202838D1606AD8B159
:100C900062480830006840F0010060499039C1F8AE
:100CA0009800FFF723FB054606E0FFF71FFB401BFC
:100CB000022801D9032076E558480830006800F082
:100CC00002000028F1D01AE054480830006820F0F3
:100CD000010052499039C1F89800FFF707FB05461B
:100CE00006E0FFF703FB401B022801D903205AE569
:100CF0004A480830006800F002000028F1D1A06ADC
:100D0000F0B30C2E74D0A06A022853D14348903817
:100D1000006820F08070414990390860FFF7E6FADA
:100D2000054606E0FFF7E2FA401B022801D903203E
:100D300039E53A489038006800F000700028F1D199
:100D4000206B401E0101606B41EA0020E16A08430C
:100D5000A18F0122C2EB510140EA41514020005DC8
:100D6000C2EB500041EA40613820005D41EAC060BA
:100D70002A499039C8600846006840F0807000E059
:100D800048E008600846C06840F08070C860FFF71F
:100D9000ADFA054606E0FFF7A9FA401B022801D983
:100DA000032000E51D489038006800F0007000281E
:100DB000F1D02FE019489038006820F08070174972
:100DC000903908600846006800F0006020B90846C5
:100DD000C06820F00300C86010489038C06810490F
:100DE00008400E499039C860FFF780FA054607E0D1
:100DF0000EE0FFF77BFA401B022801D90320D2E462
:100E000006489038006800F000700028F1D101E039
:100E10000120C8E40020C6E40070004090100240A9
:100E2000FFFFEEFE70477047704710B504460CB9DF
:100E3000012010BD94F83D0028B9002084F83C0042
:100E4000204600F00CF8022084F83D00211D2068A7
:100E500000F0E2F9012084F83D000020E9E7704746
:100E600001460868C06840F001000A68D060086860
:100E700080680B4A1040062805D00868806810403A
:100E8000B0F5803F01D1012000E0002028B90868BA
:100E9000006840F001000A68106000207047000000
:100EA00007000100704710B5044620680069C0F3D0
:100EB0004000D8B12068C068C0F34000B0B16FF006
:100EC000020021680861012020772068806900F015
:100ED000030018B12046FFF7E5FF05E0204600F0CB
:100EE000BEF8204600F0BCF800202077206800699A
:100EF000C0F38000D8B12068C068C0F38000B0B1F2
:100F00006FF0040021680861022020772068806962
:100F100000F4407018B12046FFF7C4FF05E02046FA
:100F200000F09DF8204600F09BF800202077206814
:100F30000069C0F3C000D8B12068C068C0F3C00029
:100F4000B0B16FF0080021680861042020772068A4
:100F5000C06900F0030018B12046FFF7A3FF05E0C9
:100F6000204600F07CF8204600F07AF80020207738
:100F700020680069C0F30010D8B12068C068C0F3D1
:100F80000010B0B16FF010002168086108202077D0
:100F90002068C06900F4407018B12046FFF782FF56
:100FA00005E0204600F05BF8204600F059F80020EC
:100FB00020772068006900F0010058B12068C068FF
:100FC00000F0010030B16FF0010021680861204697
:100FD00000F047F820680069C0F3C01058B12068DD
:100FE000C068C0F3C01030B16FF0800021680861A4
:100FF0002046FFF718FF20680069C0F3002058B1B1
:101000002068C068C0F3C01030B16FF480702168F0
:1010100008612046FFF706FF20680069C0F38010D2
:1010200058B12068C068C0F3801030B16FF0400044
:1010300021680861204600F019F820680069C0F3B3
:10104000401058B12068C068C0F3401030B16FF054
:101050002000216808612046FFF7E6FE10BD7047BA
:10106000704710B50446FFF747F910BD704700BF41
:10107000FEE700BFFEE7704702480068C0F30220A9
:10108000704700000CED00E010B5002807DA0A07F1
:10109000140E054A00F00F031B1FD45403E00A0787
:1010A000130E024A135410BD18ED00E000E400E0F6
:1010B00070470000F8B5044600262348806D00F014
:1010C000805018B1FFF7DEF9054616E000BF1E4854
:1010D000806D40F080501C4988650846806D00F0A6
:1010E0008050009000BF00BFFFF7CCF905461648BE
:1010F000806D20F0805014498865B5F5007F07D1D8
:10110000802C10D9A02C01D902260CE001260AE07F
:10111000802C01D9032606E0802C01D1022602E0B2
:10112000702C00D101260948006820F007003043E8
:10113000064908600846006800F00700B04201D088
:101140000120F8BD0020FCE7001002400020024012
:10115000704710B5FFF7D0F810BD00B597B010205C
:101160000190012007906020099000200890022043
:101170000B9001210C910D9128210E9102211191CA
:1011800007210F910421109101A8FFF707FB08B177
:1011900000BFFEE70F201290032013900020149050
:1011A00015901690042112A8FFF774F908B100BF3A
:1011B000FEE717B000BD00001048006840F4700062
:1011C0000E4908600E48006840F001000C490860B4
:1011D00000208860084600680A49084008490860FD
:1011E0008814C8600846006820F480200860002049
:1011F0008861C803014980390860704788ED00E0C4
:1012000000100240FFFFF6EA10B50248FFF74BFE60
:1012100010BD00000800002010B50268184B98426D
:1012200002D0B0F1804F03D122F070024B681A4314
:10123000134B984208D0B0F1804F05D0114B984223
:1012400002D0114B984203D122F44072CB681A436A
:1012500022F080034C6943EA040202608B68C36297
:101260000B688362064B984205D0064B984202D029
:10127000054B984201D10B6903630123436110BD03
:10128000002C0140004001400044014000BFFEE747
:10129000FFF73AF8FFF761FF00BFFEE74FF040703D
:1012A000E1EE100A7047000000000000000000009E
:1012B00001020304060708090000000001020304FC
:1012C000A0860100400D0300801A060000350C00C6
:1012D00040420F0080841E0000093D0000127A0089
:1012E0000024F40000366E010048E801006CDC02C6
:1012F000101300080000002008000000C8010008CA
:101300001813000808000020A0060000E4010008EF
:0813100000093D00000000008F
:040000050800018D61
:00000001FF
